{
  "_format": "hh-sol-artifact-1",
  "contractName": "GameMachine",
  "sourceName": "contracts/GameMachine.sol",
  "abi": [
    {
      "inputs": [],
      "stateMutability": "nonpayable",
      "type": "constructor"
    },
    {
      "anonymous": false,
      "inputs": [
        {
          "indexed": true,
          "internalType": "address",
          "name": "player",
          "type": "address"
        },
        {
          "indexed": false,
          "internalType": "uint256",
          "name": "machineId",
          "type": "uint256"
        },
        {
          "indexed": false,
          "internalType": "uint256",
          "name": "amount",
          "type": "uint256"
        }
      ],
      "name": "BetPlaced",
      "type": "event"
    },
    {
      "anonymous": false,
      "inputs": [
        {
          "indexed": false,
          "internalType": "uint256",
          "name": "machineId",
          "type": "uint256"
        },
        {
          "indexed": false,
          "internalType": "uint256",
          "name": "newAim",
          "type": "uint256"
        }
      ],
      "name": "GameReset",
      "type": "event"
    },
    {
      "anonymous": false,
      "inputs": [
        {
          "indexed": true,
          "internalType": "address",
          "name": "winner",
          "type": "address"
        },
        {
          "indexed": false,
          "internalType": "uint256",
          "name": "machineId",
          "type": "uint256"
        },
        {
          "indexed": false,
          "internalType": "uint256",
          "name": "prize",
          "type": "uint256"
        }
      ],
      "name": "GameWon",
      "type": "event"
    },
    {
      "anonymous": false,
      "inputs": [
        {
          "indexed": true,
          "internalType": "address",
          "name": "previousOwner",
          "type": "address"
        },
        {
          "indexed": true,
          "internalType": "address",
          "name": "newOwner",
          "type": "address"
        }
      ],
      "name": "OwnershipTransferred",
      "type": "event"
    },
    {
      "anonymous": false,
      "inputs": [
        {
          "indexed": true,
          "internalType": "address",
          "name": "buyer",
          "type": "address"
        },
        {
          "indexed": false,
          "internalType": "uint256",
          "name": "ethAmount",
          "type": "uint256"
        },
        {
          "indexed": false,
          "internalType": "uint256",
          "name": "tokenAmount",
          "type": "uint256"
        }
      ],
      "name": "TokensPurchased",
      "type": "event"
    },
    {
      "anonymous": false,
      "inputs": [
        {
          "indexed": true,
          "internalType": "address",
          "name": "seller",
          "type": "address"
        },
        {
          "indexed": false,
          "internalType": "uint256",
          "name": "tokenAmount",
          "type": "uint256"
        },
        {
          "indexed": false,
          "internalType": "uint256",
          "name": "ethAmount",
          "type": "uint256"
        }
      ],
      "name": "TokensSold",
      "type": "event"
    },
    {
      "inputs": [],
      "name": "ETH_TO_TOKEN_RATE",
      "outputs": [
        {
          "internalType": "uint256",
          "name": "",
          "type": "uint256"
        }
      ],
      "stateMutability": "view",
      "type": "function"
    },
    {
      "inputs": [],
      "name": "MAX_BET",
      "outputs": [
        {
          "internalType": "uint256",
          "name": "",
          "type": "uint256"
        }
      ],
      "stateMutability": "view",
      "type": "function"
    },
    {
      "inputs": [],
      "name": "MAX_PLAYERS",
      "outputs": [
        {
          "internalType": "uint256",
          "name": "",
          "type": "uint256"
        }
      ],
      "stateMutability": "view",
      "type": "function"
    },
    {
      "inputs": [],
      "name": "MIN_BET",
      "outputs": [
        {
          "internalType": "uint256",
          "name": "",
          "type": "uint256"
        }
      ],
      "stateMutability": "view",
      "type": "function"
    },
    {
      "inputs": [],
      "name": "buyTokens",
      "outputs": [],
      "stateMutability": "payable",
      "type": "function"
    },
    {
      "inputs": [],
      "name": "gameToken",
      "outputs": [
        {
          "internalType": "contract GameToken",
          "name": "",
          "type": "address"
        }
      ],
      "stateMutability": "view",
      "type": "function"
    },
    {
      "inputs": [
        {
          "internalType": "uint256",
          "name": "machineId",
          "type": "uint256"
        }
      ],
      "name": "getAim",
      "outputs": [
        {
          "internalType": "uint256",
          "name": "",
          "type": "uint256"
        }
      ],
      "stateMutability": "view",
      "type": "function"
    },
    {
      "inputs": [
        {
          "internalType": "uint256",
          "name": "machineId",
          "type": "uint256"
        }
      ],
      "name": "getMachinePlayerCount",
      "outputs": [
        {
          "internalType": "uint256",
          "name": "",
          "type": "uint256"
        }
      ],
      "stateMutability": "view",
      "type": "function"
    },
    {
      "inputs": [
        {
          "internalType": "uint256",
          "name": "machineId",
          "type": "uint256"
        },
        {
          "internalType": "address",
          "name": "player",
          "type": "address"
        }
      ],
      "name": "hasPlayed",
      "outputs": [
        {
          "internalType": "bool",
          "name": "",
          "type": "bool"
        }
      ],
      "stateMutability": "view",
      "type": "function"
    },
    {
      "inputs": [
        {
          "internalType": "uint256",
          "name": "",
          "type": "uint256"
        }
      ],
      "name": "machines",
      "outputs": [
        {
          "internalType": "uint256",
          "name": "currentTotal",
          "type": "uint256"
        },
        {
          "internalType": "uint256",
          "name": "aim",
          "type": "uint256"
        },
        {
          "internalType": "uint256",
          "name": "playerCount",
          "type": "uint256"
        },
        {
          "internalType": "bool",
          "name": "active",
          "type": "bool"
        }
      ],
      "stateMutability": "view",
      "type": "function"
    },
    {
      "inputs": [],
      "name": "owner",
      "outputs": [
        {
          "internalType": "address",
          "name": "",
          "type": "address"
        }
      ],
      "stateMutability": "view",
      "type": "function"
    },
    {
      "inputs": [
        {
          "internalType": "uint256",
          "name": "machineId",
          "type": "uint256"
        },
        {
          "internalType": "uint256",
          "name": "betAmount",
          "type": "uint256"
        }
      ],
      "name": "placeBet",
      "outputs": [],
      "stateMutability": "nonpayable",
      "type": "function"
    },
    {
      "inputs": [],
      "name": "renounceOwnership",
      "outputs": [],
      "stateMutability": "nonpayable",
      "type": "function"
    },
    {
      "inputs": [
        {
          "internalType": "uint256",
          "name": "tokenAmount",
          "type": "uint256"
        }
      ],
      "name": "sellTokens",
      "outputs": [],
      "stateMutability": "nonpayable",
      "type": "function"
    },
    {
      "inputs": [
        {
          "internalType": "address",
          "name": "newOwner",
          "type": "address"
        }
      ],
      "name": "transferOwnership",
      "outputs": [],
      "stateMutability": "nonpayable",
      "type": "function"
    },
    {
      "inputs": [],
      "name": "withdraw",
      "outputs": [],
      "stateMutability": "nonpayable",
      "type": "function"
    },
    {
      "stateMutability": "payable",
      "type": "receive"
    }
  ],
  "bytecode": "0x60806040523480156200001157600080fd5b506200003262000026620000ea60201b60201c565b620000f260201b60201c565b6200004333620000f260201b60201c565b6040516200005190620003d8565b604051809103906000f0801580156200006e573d6000803e3d6000fd5b50600160006101000a81548173ffffffffffffffffffffffffffffffffffffffff021916908373ffffffffffffffffffffffffffffffffffffffff16021790555060005b6003811015620000e357620000cd81620001b660201b60201c565b8080620000da906200041f565b915050620000b2565b506200086e565b600033905090565b60008060009054906101000a900473ffffffffffffffffffffffffffffffffffffffff169050816000806101000a81548173ffffffffffffffffffffffffffffffffffffffff021916908373ffffffffffffffffffffffffffffffffffffffff1602179055508173ffffffffffffffffffffffffffffffffffffffff168173ffffffffffffffffffffffffffffffffffffffff167f8be0079c531659141344cd1fd0a4f28419497f9722a3daafe3b4186f6b6457e060405160405180910390a35050565b60038110620001fc576040517f08c379a0000000000000000000000000000000000000000000000000000000008152600401620001f390620004cd565b60405180910390fd5b60006200020e620002f160201b60201c565b9050600060028360038110620002295762000228620004ef565b5b600502016000018190555080600283600381106200024c576200024b620004ef565b5b600502016001018190555060006002836003811062000270576200026f620004ef565b5b6005020160020181905550600160028360038110620002945762000293620004ef565b5b6005020160030160006101000a81548160ff0219169083151502179055507f053cb49df9c226608146f476f647eaa467ca71ff4cd87eb66be2cbb2d4ebd5188282604051620002e59291906200052f565b60405180910390a15050565b6000804244336040516020016200030b9392919062000605565b6040516020818303038152906040528051906020012060001c905060006103e8808362000339919062000677565b620003459190620006af565b905060006103e8806103e8856200035d9190620006af565b62000369919062000677565b620003759190620006af565b90506000613a98617530856200038c919062000677565b620003989190620006f1565b90506000613a9861271083620003af91906200073b565b620003bb9190620007bf565b620186a0620003cb919062000833565b9050809550505050505090565b611cfa8062002c5983390190565b7f4e487b7100000000000000000000000000000000000000000000000000000000600052601160045260246000fd5b6000819050919050565b60006200042c8262000415565b91507fffffffffffffffffffffffffffffffffffffffffffffffffffffffffffffffff8203620004615762000460620003e6565b5b600182019050919050565b600082825260208201905092915050565b7f496e76616c6964206d616368696e652049440000000000000000000000000000600082015250565b6000620004b56012836200046c565b9150620004c2826200047d565b602082019050919050565b60006020820190508181036000830152620004e881620004a6565b9050919050565b7f4e487b7100000000000000000000000000000000000000000000000000000000600052603260045260246000fd5b620005298162000415565b82525050565b60006040820190506200054660008301856200051e565b6200055560208301846200051e565b9392505050565b6000819050919050565b6200057b620005758262000415565b6200055c565b82525050565b600073ffffffffffffffffffffffffffffffffffffffff82169050919050565b6000620005ae8262000581565b9050919050565b60008160601b9050919050565b6000620005cf82620005b5565b9050919050565b6000620005e382620005c2565b9050919050565b620005ff620005f982620005a1565b620005d6565b82525050565b600062000613828662000566565b60208201915062000625828562000566565b602082019150620006378284620005ea565b601482019150819050949350505050565b7f4e487b7100000000000000000000000000000000000000000000000000000000600052601260045260246000fd5b6000620006848262000415565b9150620006918362000415565b925082620006a457620006a362000648565b5b828206905092915050565b6000620006bc8262000415565b9150620006c98362000415565b925082620006dc57620006db62000648565b5b828204905092915050565b6000819050919050565b6000620006fe82620006e7565b91506200070b83620006e7565b9250828203905081811260008412168282136000851215161715620007355762000734620003e6565b5b92915050565b60006200074882620006e7565b91506200075583620006e7565b92508282026200076581620006e7565b91507f80000000000000000000000000000000000000000000000000000000000000008414600084121615620007a0576200079f620003e6565b5b8282058414831517620007b857620007b7620003e6565b5b5092915050565b6000620007cc82620006e7565b9150620007d983620006e7565b925082620007ec57620007eb62000648565b5b600160000383147f800000000000000000000000000000000000000000000000000000000000000083141615620008285762000827620003e6565b5b828205905092915050565b6000620008408262000415565b91506200084d8362000415565b9250828201905080821115620008685762000867620003e6565b5b92915050565b6123db806200087e6000396000f3fe6080604052600436106100f75760003560e01c80637e95b5231161008a578063d82ceb8811610059578063d82ceb88146102e1578063f2fde38b1461031e578063f3581e4f14610347578063f95163e914610372576100fe565b80637e95b523146102565780638da5cb5b14610281578063c3dfdae6146102ac578063d0febe4c146102d7576100fe565b80634d42845c116100c65780634d42845c146101ab5780636540742f146101eb5780636c11bcd314610216578063715018a61461023f576100fe565b80633ccfd60b146101035780634244e23c1461011a5780634411b3eb146101575780634afe62b514610182576100fe565b366100fe57005b600080fd5b34801561010f57600080fd5b506101186103af565b005b34801561012657600080fd5b50610141600480360381019061013c91906115ad565b6104af565b60405161014e91906115e9565b60405180910390f35b34801561016357600080fd5b5061016c610517565b60405161017991906115e9565b60405180910390f35b34801561018e57600080fd5b506101a960048036038101906101a49190611604565b61051c565b005b3480156101b757600080fd5b506101d260048036038101906101cd91906115ad565b610b49565b6040516101e2949392919061165f565b60405180910390f35b3480156101f757600080fd5b50610200610b8c565b60405161020d91906115e9565b60405180910390f35b34801561022257600080fd5b5061023d600480360381019061023891906115ad565b610b91565b005b34801561024b57600080fd5b50610254610ee9565b005b34801561026257600080fd5b5061026b610efd565b60405161027891906115e9565b60405180910390f35b34801561028d57600080fd5b50610296610f03565b6040516102a391906116e5565b60405180910390f35b3480156102b857600080fd5b506102c1610f2c565b6040516102ce919061175f565b60405180910390f35b6102df610f52565b005b3480156102ed57600080fd5b50610308600480360381019061030391906117a6565b611089565b60405161031591906117e6565b60405180910390f35b34801561032a57600080fd5b5061034560048036038101906103409190611801565b61113c565b005b34801561035357600080fd5b5061035c6111bf565b60405161036991906115e9565b60405180910390f35b34801561037e57600080fd5b50610399600480360381019061039491906115ad565b6111c5565b6040516103a691906115e9565b60405180910390f35b6103b7611235565b6000479050600081116103ff576040517f08c379a00000000000000000000000000000000000000000000000000000000081526004016103f69061188b565b60405180910390fd5b60003373ffffffffffffffffffffffffffffffffffffffff1682604051610425906118dc565b60006040518083038185875af1925050503d8060008114610462576040519150601f19603f3d011682016040523d82523d6000602084013e610467565b606091505b50509050806104ab576040517f08c379a00000000000000000000000000000000000000000000000000000000081526004016104a29061193d565b60405180910390fd5b5050565b6000600382106104f4576040517f08c379a00000000000000000000000000000000000000000000000000000000081526004016104eb906119a9565b60405180910390fd5b60028260038110610508576105076119c9565b5b60050201600201549050919050565b600a81565b6003821061055f576040517f08c379a0000000000000000000000000000000000000000000000000000000008152600401610556906119a9565b60405180910390fd5b60028260038110610573576105726119c9565b5b6005020160030160009054906101000a900460ff166105c7576040517f08c379a00000000000000000000000000000000000000000000000000000000081526004016105be90611a44565b60405180910390fd5b600282600381106105db576105da6119c9565b5b6005020160040160003373ffffffffffffffffffffffffffffffffffffffff1673ffffffffffffffffffffffffffffffffffffffff16815260200190815260200160002060009054906101000a900460ff161561066d576040517f08c379a000000000000000000000000000000000000000000000000000000000815260040161066490611ab0565b60405180910390fd5b600a60028360038110610683576106826119c9565b5b6005020160020154106106cb576040517f08c379a00000000000000000000000000000000000000000000000000000000081526004016106c290611b1c565b60405180910390fd5b600081101580156106de57506127108111155b61071d576040517f08c379a000000000000000000000000000000000000000000000000000000000815260040161071490611b88565b60405180910390fd5b80600160009054906101000a900473ffffffffffffffffffffffffffffffffffffffff1673ffffffffffffffffffffffffffffffffffffffff166370a08231336040518263ffffffff1660e01b815260040161077991906116e5565b602060405180830381865afa158015610796573d6000803e3d6000fd5b505050506040513d601f19601f820116820180604052508101906107ba9190611bbd565b10156107fb576040517f08c379a00000000000000000000000000000000000000000000000000000000081526004016107f290611c36565b60405180910390fd5b600160009054906101000a900473ffffffffffffffffffffffffffffffffffffffff1673ffffffffffffffffffffffffffffffffffffffff166323b872dd3330846040518463ffffffff1660e01b815260040161085a93929190611c56565b6020604051808303816000875af1158015610879573d6000803e3d6000fd5b505050506040513d601f19601f8201168201806040525081019061089d9190611cb9565b6108dc576040517f08c379a00000000000000000000000000000000000000000000000000000000081526004016108d390611d32565b60405180910390fd5b6001600283600381106108f2576108f16119c9565b5b6005020160040160003373ffffffffffffffffffffffffffffffffffffffff1673ffffffffffffffffffffffffffffffffffffffff16815260200190815260200160002060006101000a81548160ff02191690831515021790555060028260038110610961576109606119c9565b5b60050201600201600081548092919061097990611d81565b919050555060008160028460038110610995576109946119c9565b5b60050201600001546109a79190611dc9565b905080600284600381106109be576109bd6119c9565b5b60050201600001819055503373ffffffffffffffffffffffffffffffffffffffff167e1ecf1d0c4d22f324b3ecb9cdf0e5f772bc74ac104e6626f4b3845433d031058484604051610a10929190611dfd565b60405180910390a260028360038110610a2c57610a2b6119c9565b5b60050201600101548110610b4457600060028460038110610a5057610a4f6119c9565b5b60050201600101549050600160009054906101000a900473ffffffffffffffffffffffffffffffffffffffff1673ffffffffffffffffffffffffffffffffffffffff166340c10f1933836040518363ffffffff1660e01b8152600401610ab7929190611e26565b600060405180830381600087803b158015610ad157600080fd5b505af1158015610ae5573d6000803e3d6000fd5b505050503373ffffffffffffffffffffffffffffffffffffffff167f2ffb5e4748e43f6ca515f554cade99a469e03fa57973c54c2cb30d8d4cb788d98583604051610b31929190611dfd565b60405180910390a2610b42846112b3565b505b505050565b60028160038110610b5957600080fd5b600502016000915090508060000154908060010154908060020154908060030160009054906101000a900460ff16905084565b600081565b60008111610bd4576040517f08c379a0000000000000000000000000000000000000000000000000000000008152600401610bcb90611e9b565b60405180910390fd5b80600160009054906101000a900473ffffffffffffffffffffffffffffffffffffffff1673ffffffffffffffffffffffffffffffffffffffff166370a08231336040518263ffffffff1660e01b8152600401610c3091906116e5565b602060405180830381865afa158015610c4d573d6000803e3d6000fd5b505050506040513d601f19601f82011682018060405250810190610c719190611bbd565b1015610cb2576040517f08c379a0000000000000000000000000000000000000000000000000000000008152600401610ca990611c36565b60405180910390fd5b60006103e882610cc29190611eea565b905080471015610d07576040517f08c379a0000000000000000000000000000000000000000000000000000000008152600401610cfe90611f67565b60405180910390fd5b600160009054906101000a900473ffffffffffffffffffffffffffffffffffffffff1673ffffffffffffffffffffffffffffffffffffffff166323b872dd3330856040518463ffffffff1660e01b8152600401610d6693929190611c56565b6020604051808303816000875af1158015610d85573d6000803e3d6000fd5b505050506040513d601f19601f82011682018060405250810190610da99190611cb9565b610de8576040517f08c379a0000000000000000000000000000000000000000000000000000000008152600401610ddf90611d32565b60405180910390fd5b60003373ffffffffffffffffffffffffffffffffffffffff1682604051610e0e906118dc565b60006040518083038185875af1925050503d8060008114610e4b576040519150601f19603f3d011682016040523d82523d6000602084013e610e50565b606091505b5050905080610e94576040517f08c379a0000000000000000000000000000000000000000000000000000000008152600401610e8b90611fd3565b60405180910390fd5b3373ffffffffffffffffffffffffffffffffffffffff167f2dcf9433d75db0d8b1c172641f85e319ffe4ad22e108a95d1847ceb906e5195d8484604051610edc929190611dfd565b60405180910390a2505050565b610ef1611235565b610efb60006113d5565b565b61271081565b60008060009054906101000a900473ffffffffffffffffffffffffffffffffffffffff16905090565b600160009054906101000a900473ffffffffffffffffffffffffffffffffffffffff1681565b60003411610f95576040517f08c379a0000000000000000000000000000000000000000000000000000000008152600401610f8c9061203f565b60405180910390fd5b60006103e834610fa5919061205f565b9050600160009054906101000a900473ffffffffffffffffffffffffffffffffffffffff1673ffffffffffffffffffffffffffffffffffffffff166340c10f1933836040518363ffffffff1660e01b8152600401611004929190611e26565b600060405180830381600087803b15801561101e57600080fd5b505af1158015611032573d6000803e3d6000fd5b505050503373ffffffffffffffffffffffffffffffffffffffff167f8fafebcaf9d154343dad25669bfa277f4fbacd7ac6b0c4fed522580e040a0f33348360405161107e929190611dfd565b60405180910390a250565b6000600383106110ce576040517f08c379a00000000000000000000000000000000000000000000000000000000081526004016110c5906119a9565b60405180910390fd5b600283600381106110e2576110e16119c9565b5b6005020160040160008373ffffffffffffffffffffffffffffffffffffffff1673ffffffffffffffffffffffffffffffffffffffff16815260200190815260200160002060009054906101000a900460ff16905092915050565b611144611235565b600073ffffffffffffffffffffffffffffffffffffffff168173ffffffffffffffffffffffffffffffffffffffff16036111b3576040517f08c379a00000000000000000000000000000000000000000000000000000000081526004016111aa90612113565b60405180910390fd5b6111bc816113d5565b50565b6103e881565b60006111cf611235565b60038210611212576040517f08c379a0000000000000000000000000000000000000000000000000000000008152600401611209906119a9565b60405180910390fd5b60028260038110611226576112256119c9565b5b60050201600101549050919050565b61123d611499565b73ffffffffffffffffffffffffffffffffffffffff1661125b610f03565b73ffffffffffffffffffffffffffffffffffffffff16146112b1576040517f08c379a00000000000000000000000000000000000000000000000000000000081526004016112a89061217f565b60405180910390fd5b565b600381106112f6576040517f08c379a00000000000000000000000000000000000000000000000000000000081526004016112ed906119a9565b60405180910390fd5b60006113006114a1565b9050600060028360038110611318576113176119c9565b5b60050201600001819055508060028360038110611338576113376119c9565b5b6005020160010181905550600060028360038110611359576113586119c9565b5b600502016002018190555060016002836003811061137a576113796119c9565b5b6005020160030160006101000a81548160ff0219169083151502179055507f053cb49df9c226608146f476f647eaa467ca71ff4cd87eb66be2cbb2d4ebd51882826040516113c9929190611dfd565b60405180910390a15050565b60008060009054906101000a900473ffffffffffffffffffffffffffffffffffffffff169050816000806101000a81548173ffffffffffffffffffffffffffffffffffffffff021916908373ffffffffffffffffffffffffffffffffffffffff1602179055508173ffffffffffffffffffffffffffffffffffffffff168173ffffffffffffffffffffffffffffffffffffffff167f8be0079c531659141344cd1fd0a4f28419497f9722a3daafe3b4186f6b6457e060405160405180910390a35050565b600033905090565b6000804244336040516020016114b993929190612208565b6040516020818303038152906040528051906020012060001c905060006103e880836114e59190612245565b6114ef9190611eea565b905060006103e8806103e8856115059190611eea565b61150f9190612245565b6115199190611eea565b90506000613a986175308561152e9190612245565b6115389190612280565b90506000613a986127108361154d91906122c3565b611557919061233b565b620186a06115659190611dc9565b9050809550505050505090565b600080fd5b6000819050919050565b61158a81611577565b811461159557600080fd5b50565b6000813590506115a781611581565b92915050565b6000602082840312156115c3576115c2611572565b5b60006115d184828501611598565b91505092915050565b6115e381611577565b82525050565b60006020820190506115fe60008301846115da565b92915050565b6000806040838503121561161b5761161a611572565b5b600061162985828601611598565b925050602061163a85828601611598565b9150509250929050565b60008115159050919050565b61165981611644565b82525050565b600060808201905061167460008301876115da565b61168160208301866115da565b61168e60408301856115da565b61169b6060830184611650565b95945050505050565b600073ffffffffffffffffffffffffffffffffffffffff82169050919050565b60006116cf826116a4565b9050919050565b6116df816116c4565b82525050565b60006020820190506116fa60008301846116d6565b92915050565b6000819050919050565b600061172561172061171b846116a4565b611700565b6116a4565b9050919050565b60006117378261170a565b9050919050565b60006117498261172c565b9050919050565b6117598161173e565b82525050565b60006020820190506117746000830184611750565b92915050565b611783816116c4565b811461178e57600080fd5b50565b6000813590506117a08161177a565b92915050565b600080604083850312156117bd576117bc611572565b5b60006117cb85828601611598565b92505060206117dc85828601611791565b9150509250929050565b60006020820190506117fb6000830184611650565b92915050565b60006020828403121561181757611816611572565b5b600061182584828501611791565b91505092915050565b600082825260208201905092915050565b7f4e6f2045544820746f2077697468647261770000000000000000000000000000600082015250565b600061187560128361182e565b91506118808261183f565b602082019050919050565b600060208201905081810360008301526118a481611868565b9050919050565b600081905092915050565b50565b60006118c66000836118ab565b91506118d1826118b6565b600082019050919050565b60006118e7826118b9565b9150819050919050565b7f4661696c656420746f2077697468647261772045544800000000000000000000600082015250565b600061192760168361182e565b9150611932826118f1565b602082019050919050565b600060208201905081810360008301526119568161191a565b9050919050565b7f496e76616c6964206d616368696e652049440000000000000000000000000000600082015250565b600061199360128361182e565b915061199e8261195d565b602082019050919050565b600060208201905081810360008301526119c281611986565b9050919050565b7f4e487b7100000000000000000000000000000000000000000000000000000000600052603260045260246000fd5b7f4d616368696e65206973206e6f74206163746976650000000000000000000000600082015250565b6000611a2e60158361182e565b9150611a39826119f8565b602082019050919050565b60006020820190508181036000830152611a5d81611a21565b9050919050565b7f416c726561647920706c61796564206f6e2074686973206d616368696e650000600082015250565b6000611a9a601e8361182e565b9150611aa582611a64565b602082019050919050565b60006020820190508181036000830152611ac981611a8d565b9050919050565b7f4d616368696e652069732066756c6c0000000000000000000000000000000000600082015250565b6000611b06600f8361182e565b9150611b1182611ad0565b602082019050919050565b60006020820190508181036000830152611b3581611af9565b9050919050565b7f42657420616d6f756e74206f7574206f662072616e6765000000000000000000600082015250565b6000611b7260178361182e565b9150611b7d82611b3c565b602082019050919050565b60006020820190508181036000830152611ba181611b65565b9050919050565b600081519050611bb781611581565b92915050565b600060208284031215611bd357611bd2611572565b5b6000611be184828501611ba8565b91505092915050565b7f496e73756666696369656e7420746f6b656e2062616c616e6365000000000000600082015250565b6000611c20601a8361182e565b9150611c2b82611bea565b602082019050919050565b60006020820190508181036000830152611c4f81611c13565b9050919050565b6000606082019050611c6b60008301866116d6565b611c7860208301856116d6565b611c8560408301846115da565b949350505050565b611c9681611644565b8114611ca157600080fd5b50565b600081519050611cb381611c8d565b92915050565b600060208284031215611ccf57611cce611572565b5b6000611cdd84828501611ca4565b91505092915050565b7f546f6b656e207472616e73666572206661696c65640000000000000000000000600082015250565b6000611d1c60158361182e565b9150611d2782611ce6565b602082019050919050565b60006020820190508181036000830152611d4b81611d0f565b9050919050565b7f4e487b7100000000000000000000000000000000000000000000000000000000600052601160045260246000fd5b6000611d8c82611577565b91507fffffffffffffffffffffffffffffffffffffffffffffffffffffffffffffffff8203611dbe57611dbd611d52565b5b600182019050919050565b6000611dd482611577565b9150611ddf83611577565b9250828201905080821115611df757611df6611d52565b5b92915050565b6000604082019050611e1260008301856115da565b611e1f60208301846115da565b9392505050565b6000604082019050611e3b60008301856116d6565b611e4860208301846115da565b9392505050565b7f4d7573742073656c6c206d6f7265207468616e203020746f6b656e7300000000600082015250565b6000611e85601c8361182e565b9150611e9082611e4f565b602082019050919050565b60006020820190508181036000830152611eb481611e78565b9050919050565b7f4e487b7100000000000000000000000000000000000000000000000000000000600052601260045260246000fd5b6000611ef582611577565b9150611f0083611577565b925082611f1057611f0f611ebb565b5b828204905092915050565b7f436f6e74726163742068617320696e73756666696369656e7420455448000000600082015250565b6000611f51601d8361182e565b9150611f5c82611f1b565b602082019050919050565b60006020820190508181036000830152611f8081611f44565b9050919050565b7f4661696c656420746f2073656e64204554480000000000000000000000000000600082015250565b6000611fbd60128361182e565b9150611fc882611f87565b602082019050919050565b60006020820190508181036000830152611fec81611fb0565b9050919050565b7f4d7573742073656e642045544820746f2062757920746f6b656e730000000000600082015250565b6000612029601b8361182e565b915061203482611ff3565b602082019050919050565b600060208201905081810360008301526120588161201c565b9050919050565b600061206a82611577565b915061207583611577565b925082820261208381611577565b9150828204841483151761209a57612099611d52565b5b5092915050565b7f4f776e61626c653a206e6577206f776e657220697320746865207a65726f206160008201527f6464726573730000000000000000000000000000000000000000000000000000602082015250565b60006120fd60268361182e565b9150612108826120a1565b604082019050919050565b6000602082019050818103600083015261212c816120f0565b9050919050565b7f4f776e61626c653a2063616c6c6572206973206e6f7420746865206f776e6572600082015250565b600061216960208361182e565b915061217482612133565b602082019050919050565b600060208201905081810360008301526121988161215c565b9050919050565b6000819050919050565b6121ba6121b582611577565b61219f565b82525050565b60008160601b9050919050565b60006121d8826121c0565b9050919050565b60006121ea826121cd565b9050919050565b6122026121fd826116c4565b6121df565b82525050565b600061221482866121a9565b60208201915061222482856121a9565b60208201915061223482846121f1565b601482019150819050949350505050565b600061225082611577565b915061225b83611577565b92508261226b5761226a611ebb565b5b828206905092915050565b6000819050919050565b600061228b82612276565b915061229683612276565b92508282039050818112600084121682821360008512151617156122bd576122bc611d52565b5b92915050565b60006122ce82612276565b91506122d983612276565b92508282026122e781612276565b91507f8000000000000000000000000000000000000000000000000000000000000000841460008412161561231f5761231e611d52565b5b828205841483151761233457612333611d52565b5b5092915050565b600061234682612276565b915061235183612276565b92508261236157612360611ebb565b5b600160000383147f80000000000000000000000000000000000000000000000000000000000000008314161561239a57612399611d52565b5b82820590509291505056fea26469706673582212204d60aca0942cd8510a162a3409c2772113df7831b5938638745396d7a1ca30f864736f6c6343000813003360806040523480156200001157600080fd5b506040518060400160405280601081526020017f44417070732047616d6520546f6b656e000000000000000000000000000000008152506040518060400160405280600381526020017f444754000000000000000000000000000000000000000000000000000000000081525081600390816200008f919062000423565b508060049081620000a1919062000423565b505050620000c4620000b8620000db60201b60201c565b620000e360201b60201c565b620000d533620000e360201b60201c565b6200050a565b600033905090565b6000600560009054906101000a900473ffffffffffffffffffffffffffffffffffffffff16905081600560006101000a81548173ffffffffffffffffffffffffffffffffffffffff021916908373ffffffffffffffffffffffffffffffffffffffff1602179055508173ffffffffffffffffffffffffffffffffffffffff168173ffffffffffffffffffffffffffffffffffffffff167f8be0079c531659141344cd1fd0a4f28419497f9722a3daafe3b4186f6b6457e060405160405180910390a35050565b600081519050919050565b7f4e487b7100000000000000000000000000000000000000000000000000000000600052604160045260246000fd5b7f4e487b7100000000000000000000000000000000000000000000000000000000600052602260045260246000fd5b600060028204905060018216806200022b57607f821691505b602082108103620002415762000240620001e3565b5b50919050565b60008190508160005260206000209050919050565b60006020601f8301049050919050565b600082821b905092915050565b600060088302620002ab7fffffffffffffffffffffffffffffffffffffffffffffffffffffffffffffffff826200026c565b620002b786836200026c565b95508019841693508086168417925050509392505050565b6000819050919050565b6000819050919050565b600062000304620002fe620002f884620002cf565b620002d9565b620002cf565b9050919050565b6000819050919050565b6200032083620002e3565b620003386200032f826200030b565b84845462000279565b825550505050565b600090565b6200034f62000340565b6200035c81848462000315565b505050565b5b8181101562000384576200037860008262000345565b60018101905062000362565b5050565b601f821115620003d3576200039d8162000247565b620003a8846200025c565b81016020851015620003b8578190505b620003d0620003c7856200025c565b83018262000361565b50505b505050565b600082821c905092915050565b6000620003f860001984600802620003d8565b1980831691505092915050565b6000620004138383620003e5565b9150826002028217905092915050565b6200042e82620001a9565b67ffffffffffffffff8111156200044a5762000449620001b4565b5b62000456825462000212565b6200046382828562000388565b600060209050601f8311600181146200049b576000841562000486578287015190505b62000492858262000405565b86555062000502565b601f198416620004ab8662000247565b60005b82811015620004d557848901518255600182019150602085019450602081019050620004ae565b86831015620004f55784890151620004f1601f891682620003e5565b8355505b6001600288020188555050505b505050505050565b6117e0806200051a6000396000f3fe608060405234801561001057600080fd5b50600436106100f55760003560e01c806370a0823111610097578063a457c2d711610066578063a457c2d714610276578063a9059cbb146102a6578063dd62ed3e146102d6578063f2fde38b14610306576100f5565b806370a0823114610200578063715018a6146102305780638da5cb5b1461023a57806395d89b4114610258576100f5565b806323b872dd116100d357806323b872dd14610166578063313ce5671461019657806339509351146101b457806340c10f19146101e4576100f5565b806306fdde03146100fa578063095ea7b31461011857806318160ddd14610148575b600080fd5b610102610322565b60405161010f9190610f29565b60405180910390f35b610132600480360381019061012d9190610fe4565b6103b4565b60405161013f919061103f565b60405180910390f35b6101506103d7565b60405161015d9190611069565b60405180910390f35b610180600480360381019061017b9190611084565b6103e1565b60405161018d919061103f565b60405180910390f35b61019e610410565b6040516101ab91906110f3565b60405180910390f35b6101ce60048036038101906101c99190610fe4565b610419565b6040516101db919061103f565b60405180910390f35b6101fe60048036038101906101f99190610fe4565b610450565b005b61021a6004803603810190610215919061110e565b610466565b6040516102279190611069565b60405180910390f35b6102386104ae565b005b6102426104c2565b60405161024f919061114a565b60405180910390f35b6102606104ec565b60405161026d9190610f29565b60405180910390f35b610290600480360381019061028b9190610fe4565b61057e565b60405161029d919061103f565b60405180910390f35b6102c060048036038101906102bb9190610fe4565b6105f5565b6040516102cd919061103f565b60405180910390f35b6102f060048036038101906102eb9190611165565b610618565b6040516102fd9190611069565b60405180910390f35b610320600480360381019061031b919061110e565b61069f565b005b606060038054610331906111d4565b80601f016020809104026020016040519081016040528092919081815260200182805461035d906111d4565b80156103aa5780601f1061037f576101008083540402835291602001916103aa565b820191906000526020600020905b81548152906001019060200180831161038d57829003601f168201915b5050505050905090565b6000806103bf610722565b90506103cc81858561072a565b600191505092915050565b6000600254905090565b6000806103ec610722565b90506103f98582856108f3565b61040485858561097f565b60019150509392505050565b60006012905090565b600080610424610722565b90506104458185856104368589610618565b6104409190611234565b61072a565b600191505092915050565b610458610bf5565b6104628282610c73565b5050565b60008060008373ffffffffffffffffffffffffffffffffffffffff1673ffffffffffffffffffffffffffffffffffffffff168152602001908152602001600020549050919050565b6104b6610bf5565b6104c06000610dc9565b565b6000600560009054906101000a900473ffffffffffffffffffffffffffffffffffffffff16905090565b6060600480546104fb906111d4565b80601f0160208091040260200160405190810160405280929190818152602001828054610527906111d4565b80156105745780601f1061054957610100808354040283529160200191610574565b820191906000526020600020905b81548152906001019060200180831161055757829003601f168201915b5050505050905090565b600080610589610722565b905060006105978286610618565b9050838110156105dc576040517f08c379a00000000000000000000000000000000000000000000000000000000081526004016105d3906112da565b60405180910390fd5b6105e9828686840361072a565b60019250505092915050565b600080610600610722565b905061060d81858561097f565b600191505092915050565b6000600160008473ffffffffffffffffffffffffffffffffffffffff1673ffffffffffffffffffffffffffffffffffffffff16815260200190815260200160002060008373ffffffffffffffffffffffffffffffffffffffff1673ffffffffffffffffffffffffffffffffffffffff16815260200190815260200160002054905092915050565b6106a7610bf5565b600073ffffffffffffffffffffffffffffffffffffffff168173ffffffffffffffffffffffffffffffffffffffff1603610716576040517f08c379a000000000000000000000000000000000000000000000000000000000815260040161070d9061136c565b60405180910390fd5b61071f81610dc9565b50565b600033905090565b600073ffffffffffffffffffffffffffffffffffffffff168373ffffffffffffffffffffffffffffffffffffffff1603610799576040517f08c379a0000000000000000000000000000000000000000000000000000000008152600401610790906113fe565b60405180910390fd5b600073ffffffffffffffffffffffffffffffffffffffff168273ffffffffffffffffffffffffffffffffffffffff1603610808576040517f08c379a00000000000000000000000000000000000000000000000000000000081526004016107ff90611490565b60405180910390fd5b80600160008573ffffffffffffffffffffffffffffffffffffffff1673ffffffffffffffffffffffffffffffffffffffff16815260200190815260200160002060008473ffffffffffffffffffffffffffffffffffffffff1673ffffffffffffffffffffffffffffffffffffffff168152602001908152602001600020819055508173ffffffffffffffffffffffffffffffffffffffff168373ffffffffffffffffffffffffffffffffffffffff167f8c5be1e5ebec7d5bd14f71427d1e84f3dd0314c0f7b2291e5b200ac8c7c3b925836040516108e69190611069565b60405180910390a3505050565b60006108ff8484610618565b90507fffffffffffffffffffffffffffffffffffffffffffffffffffffffffffffffff8114610979578181101561096b576040517f08c379a0000000000000000000000000000000000000000000000000000000008152600401610962906114fc565b60405180910390fd5b610978848484840361072a565b5b50505050565b600073ffffffffffffffffffffffffffffffffffffffff168373ffffffffffffffffffffffffffffffffffffffff16036109ee576040517f08c379a00000000000000000000000000000000000000000000000000000000081526004016109e59061158e565b60405180910390fd5b600073ffffffffffffffffffffffffffffffffffffffff168273ffffffffffffffffffffffffffffffffffffffff1603610a5d576040517f08c379a0000000000000000000000000000000000000000000000000000000008152600401610a5490611620565b60405180910390fd5b610a68838383610e8f565b60008060008573ffffffffffffffffffffffffffffffffffffffff1673ffffffffffffffffffffffffffffffffffffffff16815260200190815260200160002054905081811015610aee576040517f08c379a0000000000000000000000000000000000000000000000000000000008152600401610ae5906116b2565b60405180910390fd5b8181036000808673ffffffffffffffffffffffffffffffffffffffff1673ffffffffffffffffffffffffffffffffffffffff16815260200190815260200160002081905550816000808573ffffffffffffffffffffffffffffffffffffffff1673ffffffffffffffffffffffffffffffffffffffff168152602001908152602001600020600082825401925050819055508273ffffffffffffffffffffffffffffffffffffffff168473ffffffffffffffffffffffffffffffffffffffff167fddf252ad1be2c89b69c2b068fc378daa952ba7f163c4a11628f55a4df523b3ef84604051610bdc9190611069565b60405180910390a3610bef848484610e94565b50505050565b610bfd610722565b73ffffffffffffffffffffffffffffffffffffffff16610c1b6104c2565b73ffffffffffffffffffffffffffffffffffffffff1614610c71576040517f08c379a0000000000000000000000000000000000000000000000000000000008152600401610c689061171e565b60405180910390fd5b565b600073ffffffffffffffffffffffffffffffffffffffff168273ffffffffffffffffffffffffffffffffffffffff1603610ce2576040517f08c379a0000000000000000000000000000000000000000000000000000000008152600401610cd99061178a565b60405180910390fd5b610cee60008383610e8f565b8060026000828254610d009190611234565b92505081905550806000808473ffffffffffffffffffffffffffffffffffffffff1673ffffffffffffffffffffffffffffffffffffffff168152602001908152602001600020600082825401925050819055508173ffffffffffffffffffffffffffffffffffffffff16600073ffffffffffffffffffffffffffffffffffffffff167fddf252ad1be2c89b69c2b068fc378daa952ba7f163c4a11628f55a4df523b3ef83604051610db19190611069565b60405180910390a3610dc560008383610e94565b5050565b6000600560009054906101000a900473ffffffffffffffffffffffffffffffffffffffff16905081600560006101000a81548173ffffffffffffffffffffffffffffffffffffffff021916908373ffffffffffffffffffffffffffffffffffffffff1602179055508173ffffffffffffffffffffffffffffffffffffffff168173ffffffffffffffffffffffffffffffffffffffff167f8be0079c531659141344cd1fd0a4f28419497f9722a3daafe3b4186f6b6457e060405160405180910390a35050565b505050565b505050565b600081519050919050565b600082825260208201905092915050565b60005b83811015610ed3578082015181840152602081019050610eb8565b60008484015250505050565b6000601f19601f8301169050919050565b6000610efb82610e99565b610f058185610ea4565b9350610f15818560208601610eb5565b610f1e81610edf565b840191505092915050565b60006020820190508181036000830152610f438184610ef0565b905092915050565b600080fd5b600073ffffffffffffffffffffffffffffffffffffffff82169050919050565b6000610f7b82610f50565b9050919050565b610f8b81610f70565b8114610f9657600080fd5b50565b600081359050610fa881610f82565b92915050565b6000819050919050565b610fc181610fae565b8114610fcc57600080fd5b50565b600081359050610fde81610fb8565b92915050565b60008060408385031215610ffb57610ffa610f4b565b5b600061100985828601610f99565b925050602061101a85828601610fcf565b9150509250929050565b60008115159050919050565b61103981611024565b82525050565b60006020820190506110546000830184611030565b92915050565b61106381610fae565b82525050565b600060208201905061107e600083018461105a565b92915050565b60008060006060848603121561109d5761109c610f4b565b5b60006110ab86828701610f99565b93505060206110bc86828701610f99565b92505060406110cd86828701610fcf565b9150509250925092565b600060ff82169050919050565b6110ed816110d7565b82525050565b600060208201905061110860008301846110e4565b92915050565b60006020828403121561112457611123610f4b565b5b600061113284828501610f99565b91505092915050565b61114481610f70565b82525050565b600060208201905061115f600083018461113b565b92915050565b6000806040838503121561117c5761117b610f4b565b5b600061118a85828601610f99565b925050602061119b85828601610f99565b9150509250929050565b7f4e487b7100000000000000000000000000000000000000000000000000000000600052602260045260246000fd5b600060028204905060018216806111ec57607f821691505b6020821081036111ff576111fe6111a5565b5b50919050565b7f4e487b7100000000000000000000000000000000000000000000000000000000600052601160045260246000fd5b600061123f82610fae565b915061124a83610fae565b925082820190508082111561126257611261611205565b5b92915050565b7f45524332303a2064656372656173656420616c6c6f77616e63652062656c6f7760008201527f207a65726f000000000000000000000000000000000000000000000000000000602082015250565b60006112c4602583610ea4565b91506112cf82611268565b604082019050919050565b600060208201905081810360008301526112f3816112b7565b9050919050565b7f4f776e61626c653a206e6577206f776e657220697320746865207a65726f206160008201527f6464726573730000000000000000000000000000000000000000000000000000602082015250565b6000611356602683610ea4565b9150611361826112fa565b604082019050919050565b6000602082019050818103600083015261138581611349565b9050919050565b7f45524332303a20617070726f76652066726f6d20746865207a65726f2061646460008201527f7265737300000000000000000000000000000000000000000000000000000000602082015250565b60006113e8602483610ea4565b91506113f38261138c565b604082019050919050565b60006020820190508181036000830152611417816113db565b9050919050565b7f45524332303a20617070726f766520746f20746865207a65726f20616464726560008201527f7373000000000000000000000000000000000000000000000000000000000000602082015250565b600061147a602283610ea4565b91506114858261141e565b604082019050919050565b600060208201905081810360008301526114a98161146d565b9050919050565b7f45524332303a20696e73756666696369656e7420616c6c6f77616e6365000000600082015250565b60006114e6601d83610ea4565b91506114f1826114b0565b602082019050919050565b60006020820190508181036000830152611515816114d9565b9050919050565b7f45524332303a207472616e736665722066726f6d20746865207a65726f20616460008201527f6472657373000000000000000000000000000000000000000000000000000000602082015250565b6000611578602583610ea4565b91506115838261151c565b604082019050919050565b600060208201905081810360008301526115a78161156b565b9050919050565b7f45524332303a207472616e7366657220746f20746865207a65726f206164647260008201527f6573730000000000000000000000000000000000000000000000000000000000602082015250565b600061160a602383610ea4565b9150611615826115ae565b604082019050919050565b60006020820190508181036000830152611639816115fd565b9050919050565b7f45524332303a207472616e7366657220616d6f756e742065786365656473206260008201527f616c616e63650000000000000000000000000000000000000000000000000000602082015250565b600061169c602683610ea4565b91506116a782611640565b604082019050919050565b600060208201905081810360008301526116cb8161168f565b9050919050565b7f4f776e61626c653a2063616c6c6572206973206e6f7420746865206f776e6572600082015250565b6000611708602083610ea4565b9150611713826116d2565b602082019050919050565b60006020820190508181036000830152611737816116fb565b9050919050565b7f45524332303a206d696e7420746f20746865207a65726f206164647265737300600082015250565b6000611774601f83610ea4565b915061177f8261173e565b602082019050919050565b600060208201905081810360008301526117a381611767565b905091905056fea264697066735822122068969852a53f1aa8a6e296caed6d66915f89a5b79c2501f7828e888e1de496b564736f6c63430008130033",
  "linkReferences": {},
  "deployedLinkReferences": {}
}